S00B00002020202020202020F4
S12180008E00FF8600B7100186FFB710038600B71002CC302CB7102BF7102D8600B75A
S121801E102C86FEB710098604B7103C8600067F00127F00107F000F7F000E863F9700
S121803C0C960C813F27FAD60E260B815326EE8653970E7E8039D60F261181542607C3
S121805A8654970F7E80397F000E7E804BD610261181412607864197107E80397F0047
S12180780F7E8061D611261181522607865297117E80397F00107E8076815427067F1F
S121809600117E808B7F001F7F000ECE0020961F27FC7F001F960C814527117F000E72
S12180B4A70008D60ED10EC10426E57E80C87C000E7E80B47F0020CE0001188C000054
S12180D22E037E802D188F9719D71A9C192D07188F18097E80CB188FA600E601112EFB
S12180F004087E80D7972017D6207E80F17F000D7F100286F49718CE10241C00400E28
S121810ECE10261C00507F10278610971B8660971C18CE106086169715865397167FA5
S121812C00197F001A399619D61A188F1808188FBD8278BD81ADBD819D961BD61C1801
S121814A8F18084F18E600BD8288BD81CCBD819D18084F18E600BD8288BD81CCBD81EF
S12181689D18084F18E600BD8288BD81CCBD819D18084F18E600BD8288BD81CCBD81C3
S12181869D18084F18E600BD8288BD81CC188F971BD71CBD81FA39CE102EB6102E86B9
S12181A42CB7102F1F0080FC39CE102EB6102E960E8B30B7102F1F0080FCB6102E9649
S12181C20F8B30B7102F1F0080FCCE102EB6102E96108B30B7102F1F0080FCB6102E5A
S12181E096118B30B7102F1F0080FCB6102E96128B30B7102F1F0080FC39CE102EB6A7
S12181FE102E860AB7102F1F0080FCB6102E860DB7102F1F0080FC39CE102EB6102EAF
S121821C960CB7102F1F0080FCB6102E863AB7102F1F0080FC39CE10308680B710397B
S121823A8610B710301F0080FCF61031D7138680B710398611B710301F0080FCF610A4
S121825832D7148612B710301F0080FCF61033D71D8613B710301F0080FCF61034D754
S12182761E39CE2710028FD70E8FCE03E8028FD70F8FCE0064028FD7108FCE000A02B3
S10A82948FD7118FD71239B7
S10FF100B6102EB6102F970C7A001F3B9F
S121F110363CCE10251C00407A0018270332383B86FF970D86F497187C100232383B26
S105FFD6F10034
S105FFF0F1100A
S105FFFE80007D
S90380007C
